:020000040800F2
:1000000000000220DD2E000811160008131600085B
:100010001516000817160008191600080000000041
:100020000000000000000000000000001B16000897
:100030001D160008000000001F1600082116000809
:100040002D2F00082D2F00082D2F00082D2F000820
:100050002D2F00082D2F00082D2F00082D2F000810
:100060002D2F00082D2F00082D2F00082D2F000800
:100070002D2F00082D2F00082D2F00082D2F0008F0
:100080002D2F00082D2F00082D2F00080000000044
:100090000000000000000000000000002D2F0008FC
:1000A0002D2F00082D2F00082D2F00082D2F0008C0
:1000B0002D2F00082D2F00082D2F00082D2F0008B0
:1000C0002D2F00082D2F00082D2F00082D2F0008A0
:1000D0002D2F0008291600082D2F00080000000011
:1000E0002D2F00082D2F00082D2F000800000000E4
:1000F0000000000000000000000000002D2F00089C
:10010000000000002D2F00082D2F00082D2F0008C3
:1001100000000000000000000000000000000000DF
:100120002D2F00082D2F00082D2F00082D2F00083F
:100130002D2F00080000000000000000000000005B
:100140000000000000000000000000002D2F00084B
:100150002D2F00082D2F00082D2F00082D2F00080F
:100160002D2F00082D2F00080000000000000000C7
:10017000000000000000000000000000000000007F
:10018000000000002D2F000800000000000000000B
:080190002D2F00082D2F00089F
:1001C0000CB410B59CB01EAB029106916FF00041CB
:1001D00004910791084953F8042B0591002402A9C2
:1001E00001931B9400F02AFB029B1C701CB0BDE81D
:1001F000104002B0704700BF0802FFFF0EB430B5D8
:100200009CB06FF000411FAB049107910A4953F86D
:10021000042B029000240690084D0868019302A95F
:1002200005951B9400F00AFB029B1C701CB0BDE8F6
:10023000304003B0704700BF000000200802FFFFFD
:10024000830730B547D0541E002A3ED0CAB20346B9
:1002500001E0013C39D303F8012B9D07F9D1032CB0
:100260002CD9CDB205EB05250F2C05EB054535D96D
:10027000A4F1100222F00F0C03F1100EE6444FEA35
:10028000121C1A46C2E90055C2E9025510327245E5
:10029000F8D10CF1010214F00C0F03EB021204F080
:1002A0000F0C13D0ACF1040323F003030433134405
:1002B00042F8045B9342FBD10CF003042CB1C9B2A9
:1002C0001C4403F8011BA342FBD130BD6446134616
:1002D000002CF4D1F9E703461446C0E71A46A446B9
:1002E000E0E700BF014B1868704700BF0000002026
:1002F00070B50F4B0F4DAB42A3EB050607D0B61000
:10030000002455F8043B01349847A642F9D802F07E
:100310005FFF094D094B5E1BAB424FEAA60606D0B4
:10032000002455F8043B01349847A642F9D870BD23
:10033000A0320008A0320008A0320008A432000851
:10034000704700BF704700BF704700BF704700BFD5
:10035000704700BF704700BF012070470120704701
:10036000704700BF704700BF0000000000000000A1
:10037000000000000000000000000000000000007D
:1003800030B490F800F020F007016FF0000C10F08E
:10039000070491F820F040F048804FF000046FF01F
:1003A0000700D1E9002391F840F000F1080082FA3B
:1003B0004CF2A4FA8CF283FA4CF3A2FA8CF34BBB06
:1003C000D1E9022382FA4CF200F10800A4FA8CF27F
:1003D00083FA4CF3A2FA8CF3E3B9D1E9042382FA4D
:1003E0004CF200F10800A4FA8CF283FA4CF3A2FA62
:1003F0008CF37BB9D1E9062301F1200182FA4CF29A
:1004000000F10800A4FA8CF283FA4CF3A2FA8CF300
:10041000002BC6D0002A04BF04301A4612BAB2FA22
:1004200082F200EBD20030BC7047D1E9002304F027
:100430000305C4F100004FEAC50514F0040F91F85C
:1004400040F00CFA05F562EA05021CBF63EA0503F9
:1004500062464FF00004AAE7002950D038B551F8A1
:10046000043C0C1F002BB8BFE418054600F0F6F85A
:10047000274A13682BB1A3420CD921686018834224
:100480002CD0636028461460BDE8384000F0ECB81A
:10049000A3420FD81A465B68002BF9D11168501897
:1004A000844217D02CD3636054602846BDE838409E
:1004B00000F0DAB811685018A04214D020D8216892
:1004C00060188342EFD118685B680844C4E90003F0
:1004D0005460EAE723680B441360E6E718685B683A
:1004E00008442060CDE72068014450188342116021
:1004F000DBD1D3E900040144C2E90014D5E7704719
:100500000C232B602846BDE8384000F0ADB800BF92
:10051000C001002070B5104E336805460C46B3B1DB
:100520002146284600F0FAFC431C0CD0C41C24F0E1
:100530000304A04205D0211A284600F0EFFC013048
:1005400001D0204670BD4FF0FF34204670BD1946E3
:1005500000F0E4FC3060E3E7BC0100202DE9F84343
:10056000CD1C25F0030508350C2D38BF0C25002DBA
:10057000064618DBA94216D8DFF8DC8000F06EF8DA
:10058000D8F80420A2B1144603E0636822467BB188
:100590001C4623685B1BF8D40B2B1FD8944263685E
:1005A00054D053600CE00C2333600020BDE8F88386
:1005B00029463046FFF7AEFF431C044619D00560BC
:1005C000304600F051F804F10B00231D20F0070025
:1005D000C21A1CBF1B1AA350BDE8F88361199442CC
:1005E000256014BF5160C8F80410635163684B6004
:1005F000E6E7D8F804701FB33C467F68002FFBD1B4
:1006000023683946304604EB030900F087FC814536
:1006100016D12368ED1A29463046FFF77BFF0130DB
:100620000ED02368D8F804202B442360536883B18C
:10063000A34203D01A465B689C42FBD10023B0E77B
:100640000C233360304600F00FF8AEE7C8F80430F2
:10065000B6E7C8F80470B3E7BC0100200148FFF713
:1006600079BE00BFAC0100200148FFF77BBE00BF90
:10067000AC0100202DE9F0478F681D46AF420B68A2
:100680000C46164636D8B1F90CC01CF4906F0ED14A
:100690003D46184631462A4600F0C0FBA368DF1BE2
:1006A0002368A7602B4400202360BDE8F0874A69D7
:1006B000096902EB42025F1A02EBD2726B1C521004
:1006C0003B44934292BF914699461A461CF4806F70
:1006D000804611D01146FFF741FF824600B32169E1
:1006E0003A4600F07DFCA38923F4906343F0800335
:1006F000A38105E02F46CCE700F00CFD824658B1FF
:100700000AEB0703A9EB0707A760C4F810A0C4F819
:10071000149023602F46BCE721694046FFF79CFEFA
:10072000A3890C2243F04003C8F800204FF0FF30AB
:10073000A381BAE72DE9F04F9368176883B092461A
:10074000002B74D04FF0000B8B680A6881460C4672
:100750005D4645E0B4F90C3013F4906F2CD0D4E929
:100760000401161A01EB410202EBD272711C521005
:100770002944914292BF904688460A465B0539D586
:1007800011464846FFF7EAFE019000283DD0324668
:10079000216900F025FCA289019B22F4906242F0BD
:1007A0008002A2819819A8EB0606A660C4F81480FE
:1007B00023612060A8462E463246594600F02EFBA3
:1007C000DAF80810A3682268A3EB08033244491B37
:1007D000A3602260CAF8081049B3D7E900B508370A
:1007E00098461046002DF8D09D421E46B2D2A8462B
:1007F0002E46E1E70146484600F08CFC03460028FF
:10080000D0D121694846FFF727FEA3890C2243F087
:100810004003C9F800204FF0FF30A38100220023DD
:10082000CAF80820CAF8043003B0BDE8F08F0020F1
:100830000023CAF8043003B0BDE8F08F2DE9F04F73
:100840001C468B891D069DB088468146934603D57C
:100850000B69002B00F0F1800023099343F2200381
:10086000ADF829309BF800307D4D03940126002B14
:1008700073D0DA4603E01AF8013F002B75D0252B20
:10088000F9D1BAEB0B0473D19AF80020002A64D096
:1008900000234FF0FF32CDE905230AF1010A04934A
:1008A00007938DF853301A9305E0049A06FA03F380
:1008B0001A430492A2465446052214F8011B284606
:1008C00000F03EFBA346431B0028EED1049BD80654
:1008D00044BF20228DF8532019079AF8001044BF16
:1008E0002B228DF853202A2950D1039A1168043203
:1008F000002903927CDB07919AF801102E295BD026
:10090000584C0322204600F01BFB38B1049B001B0F
:100910004022824013430BF1010B04931BF8011B8F
:1009200051488DF82810062200F00AFB002865D0F7
:100930004E4B002B55D003AA00924D4B424604A9C2
:100940004846AFF3008007467A1C06D0099B3B441B
:1009500009939BF80030002B8BD1B8F80C305B0664
:100960007AD409981DB0BDE8F08FBAEB0B04F4D02F
:1009700023465A4641464846FFF77CFE0130ECD0FC
:10098000099B9AF80020234409937FE7A1F13002E4
:10099000092A88BFD346B1D8079B00E001342178EB
:1009A00003EB830302EB4303A1F13002092AF5D9DB
:1009B0002E290793A346A3D19BF801102A2927D1FA
:1009C000039B9BF802101A6805920433002A0BF16E
:1009D00002000393B8BF4FF0FF338346B8BF0593BF
:1009E0008EE7039B073323F0070308330393ADE738
:1009F000494243F00203079104937DE703AA009262
:100A00001B4B424604A9484600F0C6F807469BE740
:100A1000A1F130020023092A05930BF1010B3FF6E7
:100A20006FAF1BF8011F03EB830302EB4303A1F13C
:100A30003002092AF5D9059362E74021FFF78EFDC0
:100A4000C8F80000C8F8100018B14023C8F81430E6
:100A500002E70C23C9F800304FF0FF3082E700BFF7
:100A6000443200084C3200085032000800000000F8
:100A7000750600082DE9F84F92461F460A698B68F3
:100A8000DDF828909A42B8BF1A46CAF8002091F8BB
:100A900043300C46064613B10132CAF800202268E2
:100AA00091065FD5DAF800300233CAF800302268C8
:100AB00012F0060F11461DD1E1689942D8BF1146C8
:100AC00018DD4FF0000804F1190B05E0E568DAF8CD
:100AD0000030ED1A45450CDD01235A4639463046B3
:100AE000C847013008F10108F0D14FF0FF30BDE8F0
:100AF000F88F216894F84330003B18BF01238A0621
:100B00000AD5E1185A1C302081F84300224494F899
:100B1000451082F84310023304F14302394630464F
:100B2000C8470130E1D02368DAF80050216903F0AA
:100B30000603042BD4E902201BD08A4220DD4FF0AB
:100B40000008521A90441A34002501E0454517DA8E
:100B50000123224639463046C847013005F10105D8
:100B6000F4D1C2E712F0060F0DD0003B18BF0123ED
:100B7000D2E7401B8A4220EAE078E2DC0028E2DC8F
:100B80000020BDE8F88FE168DAF800309942D8BF5C
:100B9000114696DCAEE700BF2DE9F047174684B05A
:100BA0000A7E0C9D0C460646984601F1430C002A2D
:100BB00035D0A2F15803D9B2202969D8202B67D8A3
:100BC000DFE813F0E6006600660066006600660077
:100BD00066006600660066006600AC007000660095
:100BE00066006600660070006600660066006600CB
:100BF00021008300C60066006600B6006600830020
:100C000066006600EC002B6822686169181D286088
:100C100010061B6802D4520600F1E0801960002320
:100C2000E1462361CDF800803B4603AA21463046C9
:100C3000FFF720FF013020D023694A46394630466D
:100C4000C047013019D02368E068DDF80C909B079D
:100C500018D5484516DD002504F1190A04E0E068BE
:100C6000A0EB0903AB420DDD012352463946304665
:100C7000C047013005F10105F1D14FF0FF3004B05C
:100C8000BDE8F0874845B8BF484604B0BDE8F087E6
:100C900084F84220012004F142090023206184F8F5
:100CA0004330BFE72A682368111D1806296002D463
:100CB000590600F195801068014600286268C0F26C
:100CC000938054484FF00A0E15E020682B6810F00E
:100CD000800F53F8041B02D1400648BF89B26F2A27
:100CE0004C482B6014BF4FF00A0E4FF0080E002343
:100CF000626884F84330002AA26051DB236823F045
:100D00000403236000294BD1002A7BD1E146BEF1C8
:100D1000080F56D0ACEB0903236183E72B681A68F0
:100D200004332B6004F1420984F842200120B4E727
:100D30002B686268191D2960D3F80090002148468D
:100D400000F0FEF8002863D0A0EB09006060A4E783
:100D5000236843F02003236078222F4884F845203D
:100D60002A6813F0800F52F8041B03D113F0400FD0
:100D700018BF89B22A60DA0744BF43F0200323601A
:100D800019B9236823F0200323604FF0100EAEE75B
:100D9000582384F845301F482368E1E72368DBE7E0
:100DA0007546E146B1FBF5F305FB131A0A46AA4264
:100DB00010F80A1009F8011D1946F3D2BEF1080F08
:100DC000A8D12368DD07A5D5626823699A42A1DC12
:100DD000302309F8013C09F1FF399BE719801EE730
:100DE000B2F90010084668E72D20002AA26084F8B6
:100DF000430002DB23F0040323600A25054849422F
:100E0000AE46CEE7037884F8423004F142097EE72B
:100E1000606842E7583200086C32000888420ED9F8
:100E20008B1883420BD900EB020C002A6ED062466D
:100E300013F801CD02F801CD9942F9D170470F2A7C
:100E40000FD8034602F1FF3C002A5FD00CF1010CE1
:100E5000013B8C4411F8012B03F8012F6145F9D1B6
:100E6000704740EA01039B0751D1A2F1100370B50E
:100E700001F1200C23F00F0501F1100E00F1100418
:100E8000AC441B095EF8105C44F8105C5EF80C5C26
:100E900044F80C5C5EF8085C44F8085C5EF8045C9E
:100EA00044F8045C0EF1100EE64504F11004E9D19B
:100EB000013312F00C0F01EB031102F00F0400EBF1
:100EC000031328D0043C24F003064FEA940C1E447C
:100ED0001C1F8E465EF8045B44F8045FB442F9D1EF
:100EE0000CF1010402F0030203EB840301EB840123
:100EF00002F1FF3C4AB10CF1010C013B8C4411F8AA
:100F0000012B03F8012F6145F9D170BD704702F143
:100F1000FF3C03469AE72246EAE700BF38B5074D93
:100F20000022044608462A6001F0B4FF431C00D0AA
:100F300038BD2B68002BFBD0236038BD9801002002
:100F400001F0FF01102A2BDB10F0070F08D010F87A
:100F5000013B013A8B422DD010F0070F42B3F6D17E
:100F6000F0B441EA012141EA014122F007047FF097
:100F700000070023F0E80256083C85EA010586EAEE
:100F8000010685FA47F5A3FA87F586FA47F6A5FA2A
:100F900087F68EB9EED1F0BC01F0FF0102F0070236
:100FA00032B110F8013B013A83EA010313B1F8D1E1
:100FB0000020704701387047002D06BF35460338C2
:100FC000073815F0010F07D1013015F4807F02BFFB
:100FD000013015F4C03F0130F0BC0138704700BF4C
:100FE000844641EA000313F003036DD1403A41D334
:100FF00051F8043B40F8043B51F8043B40F8043BF3
:1010000051F8043B40F8043B51F8043B40F8043BE2
:1010100051F8043B40F8043B51F8043B40F8043BD2
:1010200051F8043B40F8043B51F8043B40F8043BC2
:1010300051F8043B40F8043B51F8043B40F8043BB2
:1010400051F8043B40F8043B51F8043B40F8043BA2
:1010500051F8043B40F8043B51F8043B40F8043B92
:1010600051F8043B40F8043B51F8043B40F8043B82
:10107000403ABDD2303211D351F8043B40F8043B22
:1010800051F8043B40F8043B51F8043B40F8043B62
:1010900051F8043B40F8043B103AEDD20C3205D332
:1010A00051F8043B40F8043B043AF9D2043208D02A
:1010B000D2071CBF11F8013B00F8013B01D30B889C
:1010C00003806046704700BF082A13D38B078DD07A
:1010D00010F003038AD0C3F10403D21ADB071CBF4C
:1010E00011F8013B00F8013B80D331F8023B20F8B6
:1010F000023B7BE7043AD9D3013A11F8013B00F8EF
:10110000013BF9D20B7803704B7843708B78837076
:10111000604670472DE9F041144641B30AB30646D4
:101120000D4600F029F88442074602D8B4EB500F70
:1011300013D821463046FFF711FA804650B1BC4221
:101140002246294628BF3A46FFF74AFF294630463D
:10115000FFF782F94046BDE8F081A8464046BDE869
:10116000F081A046FFF778F94046BDE8F081BDE880
:10117000F0411146FFF7F2B951F8043C181F002B5B
:10118000BCBF0B58C018704753B94AB9002908BFF3
:1011900000281CBF4FF0FF314FF0FF3000F00CB8BB
:1011A000ADF1080C6DE904CE01F0C1FEDDF804E0FC
:1011B000DDE9022304B07047704700BF10B5054C4D
:1011C000237833B9044B13B10448AFF300800123F3
:1011D000237010BDC401002000000000D0310008C1
:1011E00008B5034B1BB103490348AFF3008008BDAA
:1011F00000000000C8010020D031000870B588B0A0
:1012000000240394049405940694079400941C4BC2
:101210001A6B42F080021A631A6B02F0800200928D
:10122000009A01941A6B42F001021A631A6B02F0E1
:1012300001020192019A02941A6B42F002021A63AF
:101240001B6B03F002030293029B4FF48073039322
:10125000022504950695012307930A4E03A93046FB
:1012600001F0FEFB4FF4C0630393049505940695CB
:101270000723079303A9304601F0F2FB08B070BDC5
:10128000003802400000024000B589B01D4B1B78B9
:10129000642B09D0442B29D11B4B00E001331A7871
:1012A000202AFBD0002207E0174BF8E702EB82026E
:1012B000303901EB420201331978A1F13000C0B29C
:1012C0000928F3D9B2F5FA6F01DB40F2CF720F4B68
:1012D0005A630F496846FEF791FF6846FFF750F8DA
:1012E000642382B269460B4800F027FE054A0023BA
:1012F000136053609360D360074A137009B05DF8C0
:1013000004FB00BFE4010020E501002000000140D3
:10131000E8310008F4010020E001002002681D4BC4
:101320009A4200D0704770B51B4B19781B4B5B5C21
:101330000D2B0ED00A2B0CD00E291ED80131C9B2AC
:10134000154B19700122154B1944154801F04FF83F
:1013500012E0124D00266E54FFF796FF104C6423E6
:1013600004221049204600F0E8FD0B4B1E700122BC
:101370002946204601F03BF870BD0023064A137051
:1013800006490B604B608B60CB600122044801F082
:101390002EF8F1E700100140E0010020E4010020F8
:1013A000F4010020F431000838B50368134A934271
:1013B00000D038BD6FF008021A6003686FF00402B5
:1013C0001A6003686FF002021A6003686FF001028E
:1013D0001A6000230A4A13700A4C23606360A360FA
:1013E000E360094D64231F220849284600F0A5FD4B
:1013F00001222146284600F0FAFFDAE700100140FA
:10140000E0010020E4010020F4010020FC3100088C
:1014100072B6FEE708B50A480A4B03604FF4E133A1
:10142000436000238360C36003610C2242618361D7
:10143000C36100F052FD00B908BDFFF7E9FF00BF2E
:10144000F40100200010014010B592B00024109467
:10145000119409940A940B940C940D940E940F9487
:101460002022214601A8FEF7EBFE2148214B036014
:101470004460846040F2CF73C3600461446184615E
:1014800000F04AFA00282AD100231093119310A9E2
:10149000174800F091FB20BB6023099300220A92B9
:1014A0000B920C9204230D930E920F9209A91048EF
:1014B00000F08CFAB8B900230193029303930493CC
:1014C00005934FF400520692089301A9084800F0D2
:1014D000B1FB50B9064800F0E3F812B010BDFFF7B9
:1014E00097FFFFF795FFFFF793FFFFF791FF00BF0F
:1014F0003C0200200000014000B595B030220021E0
:1015000008A8FEF79DFE002303930493059306931A
:10151000079301931F4A116C41F080511164126CC2
:1015200002F080520192019A02931B4B1A6842F416
:1015300040421A601B6803F440430293029B01235C
:1015400008934FF48033099302230E934FF48002E3
:101550000F920C2210926022119212930423139383
:1015600008A800F057FF88B90F23039302230493C0
:10157000002305934FF4805206920793032103A89A
:1015800001F098F920B915B05DF804FBFFF740FFB2
:10159000FFF73EFF003802400070004008B501F040
:1015A00043FCFFF7A9FFFFF729FEFFF733FFFFF723
:1015B0004BFF104C01221049204600F018FF00217B
:1015C0000E4800F081FA0E4B00225A6364230F226A
:1015D0000C49204600F0B1FC642315220A4920463C
:1015E00000F0ABFC642304220849204600F0A5FC6F
:1015F000FEE700BFF4010020E40100203C020020CF
:10160000000001401C3200082C320008F4310008B0
:10161000FEE7FEE7FEE7FEE7FEE77047704770472C
:1016200008B501F01BFC08BD08B5024800F074FDC8
:1016300008BD00BFF401002082B0002100910B4BD7
:101640005A6C42F480425A645A6C02F4804200920E
:10165000009A01911A6C42F080521A641B6C03F0DC
:1016600080530193019B02B0704700BF00380240D5
:101670000268094B9A4200D0704782B00023019360
:10168000064B5A6C42F001025A645B6C03F0010392
:101690000193019B02B070470000014000380240F6
:1016A00000B587B00023019302930393049305933D
:1016B00002680F4B9A4202D007B05DF804FB00238A
:1016C00000930C4B1A6B42F001021A631B6B03F080
:1016D00001030093009B4FF4807301930223029354
:1016E0000123059301A9044801F0BAF9E4E700BF1A
:1016F00000000140003802400000024010B588B0F0
:10170000002303930493059306930793026803F160
:10171000804303F588339A4201D008B010BD0024FD
:10172000019403F594335A6C42F010025A645A6CD7
:1017300002F010020192019A02941A6B42F0010227
:101740001A631B6B03F001030293029B4FF4C06307
:10175000039302230493032306930723079303A908
:10176000054801F07DF922462146252001F00EFBB7
:10177000252001F01BFBD0E70000024030B4026AD4
:10178000036A23F0010303624568836923F073034E
:101790000C681C4322F002028B6813430B4A9042F0
:1017A00006D0456084614A684263036230BC70477A
:1017B00023F00803CA681A4322F0040325F4407595
:1017C0004A692A438D691543EBE700BF00000140D9
:1017D00030B4036A026A22F4807202624468C26909
:1017E00022F073020D68154323F400738A6843EAFC
:1017F00002230D4A904206D04460C5614A68C26324
:10180000036230BC704723F40063CA6843EA0223D2
:1018100023F4806324F440544A6944EA02148A6938
:1018200044EA0214E8E700BF0000014030B4036A54
:10183000026A22F4805202624468C26922F4E642DB
:101840000D6842EA052223F400538D6843EA05330C
:10185000074DA84206D04460C2614A680264036230
:1018600030BC704724F480444D6944EA8514F2E7A3
:10187000000001400368274A90420ED0B0F1804F2B
:101880000BD0A2F57C42904207D002F580629042D4
:1018900003D002F58062904203D123F070034A68BE
:1018A00013431C4A90421AD0B0F1804F17D0A2F5D2
:1018B0007C42904213D002F5806290420FD002F534
:1018C000806290420BD002F59A32904207D002F526
:1018D0008062904203D002F58062904203D123F4EB
:1018E0004073CA68134323F080034A6913438A682C
:1018F000C2620A688262074A904207D0026842F0D8
:101900000402026001224261036070470A690263B7
:10191000F4E700BF0000014040B310B5044690F862
:101920003D30F3B1022384F83D30214651F8040BD9
:10193000FFF7A0FF012384F8463084F83E3084F896
:101940003F3084F8403084F8413084F8423084F8E5
:10195000433084F8443084F8453084F83D3000202A
:1019600010BD80F83C30FFF783FEDBE701207047B5
:1019700030B4036A026A22F010020262446882698B
:1019800022F4E6420D6842EA052223F020038D6826
:1019900043EA05130C4DA84206D0446082614A68B0
:1019A0008263036230BC704723F08003CD6843EA52
:1019B000051323F0400324F440644D6944EA850490
:1019C0008D6944EA8504E8E70000014038B590F8E5
:1019D0003C30012B66D004460D46012380F83C3094
:1019E0000C2A5AD8DFE802F0075959591B5959599E
:1019F0003059595944000068FFF7C0FE22689369C6
:101A000043F0080393612268936923F00403936110
:101A10002268936929690B43936100203EE00068C6
:101A2000FFF7A6FF2268936943F40063936122687D
:101A3000936923F48063936122689369296943EA77
:101A400001239361002029E00068FFF7C1FE2268AE
:101A5000D36943F00803D3612268D36923F00403F8
:101A6000D3612268D36929690B43D361002015E053
:101A70000068FFF7DBFE2268D36943F40063D3619B
:101A80002268D36923F48063D3612268D36929690A
:101A900043EA0123D361002000E00120002384F801
:101AA0003C3038BD0220FCE701F01F014FF0010C73
:101AB0000CFA01FC036A23EA0C030362036A8A40FE
:101AC000134303627047000010B50446084600291E
:101AD00032D194F83E30DBB2013B18BF0123002B1A
:101AE00063D1002841D1022384F83E30012201460F
:101AF0002068FFF7D9FF23682E4A934245D0236818
:101B00002C4A934246D0B3F1804F43D0A2F57C4299
:101B100093423FD002F5806293423BD002F580624F
:101B2000934237D002F59A32934233D01A6842F08A
:101B300001021A60002037E0042908D008290DD0DE
:101B400094F84130DBB2013B18BF0123C7E794F89A
:101B50003F30DBB2013B18BF0123C0E794F84030AF
:101B6000DBB2013B18BF0123B9E7042805D00828E0
:101B700007D0022384F84130B8E7022384F83F30CD
:101B8000B4E7022384F84030B0E75A6C42F40042D4
:101B90005A64B4E79A6802F00702062A07D01A6866
:101BA00042F001021A60002010BD0120FCE7002075
:101BB000FAE700BF0000014090F83C20012A35D030
:101BC00010B40346012280F83C20022280F83D2018
:101BD00002685068946820F0700C086840EA0C00B5
:101BE00050601A681248824212D0B2F1804F0FD072
:101BF000A0F57C4082420BD000F58060824207D085
:101C000000F58060824203D000F59A30824204D110
:101C100024F08004496821439160012283F83D202B
:101C2000002083F83C005DF8044B704702207047A9
:101C300000000140024690F83C30012B21D00123E6
:101C400080F83C30CB6823F440738868034323F466
:101C500080634868034323F400630868034323F464
:101C600080530869034323F400534869034323F472
:101C70008043C9690B4311684B64002082F83C0023
:101C8000704702207047026802F10C0353E8003FDE
:101C900023F490730C3242E800310029F3D102683A
:101CA00002F1140353E8003F23F00103143242E829
:101CB00000310029F3D1036B012B05D0202380F8DC
:101CC0004230002303637047026802F10C0353E8BB
:101CD000003F23F010030C3242E800310029F3D119
:101CE000ECE790F84130DBB2212B01D002207047A5
:101CF0008368B3F5805F17D0036A5A1C02621A78B2
:101D000003685A60C38C9BB2013B9BB2C3844BB93E
:101D10000268D36823F08003D3600268D36843F07D
:101D20004003D360002070470369002BE4D1036AAD
:101D30001B880268C3F308035360036A023303621B
:101D4000E0E7000010B504460268136923F440532D
:101D5000C1680B431361836802691A4343691A43DC
:101D6000C3691A430168CB6823F4164323F00C03BC
:101D70001343CB600268536923F4407381690B43BA
:101D800053610368314A934206D002F58062934260
:101D900002D000F045FE01E000F052FEE369B3F529
:101DA000004F29D00021031849411B1841F10001BF
:101DB000C90041EA5371DB00181863684FEA8302D7
:101DC0004FEA937341F10001FFF7DEF9204AA2FBCD
:101DD00000314909642303FB11031B013233A2FBC9
:101DE00003235B0903F0F00202EB011203F00F037F
:101DF000216813448B6010BD0023021843EB0301DC
:101E0000121841F10001C90041EA5271D2001018C4
:101E100041F10001626892185B41FFF7B5F90C4A85
:101E2000A2FB00314909642303FB1103DB003233B9
:101E3000A2FB03235B095A0002F4F87202EB0112C1
:101E400003F00703216813448B60D4E700100140BE
:101E50001F85EB512DE9F04383B005460E4617462A
:101E60009946DDF828802B681C6836EA04040CBF0C
:101E700001240024BC4228D1B8F1FF3FF3D000F088
:101E8000F9FFA0EB0900404523D8B8F1000F22D09C
:101E90002B68DA6812F0040FE5D0802EE3D0402ED4
:101EA000E1D01A6812F0080FDDD0002401941A68FE
:101EB00001925B680193019B2846FFF7E4FE08232B
:101EC0006B6485F84040012000E0002003B0BDE8CD
:101ED000F0830320FAE70320F8E760B310B5044667
:101EE00090F8413013B3242384F841302268D3683A
:101EF00023F40053D3602046FFF724FF22681369C0
:101F000023F4904313612268536923F02A03536139
:101F10002268D36843F40053D36000206064202318
:101F200084F8413084F84230606310BD80F840305E
:101F3000FFF7E4FBD7E7012070472DE9F04182B0BD
:101F40001E4690F84130DBB2202B56D104460D4698
:101F50009046002955D00AB901204FE00023436480
:101F6000212380F8413000F085FF0746A4F8248043
:101F7000A4F82680A368B3F5805F02D04FF0000874
:101F800014E023692BB34FF000080FE0202384F8FE
:101F90004130032032E038F8023B2268C3F30803E3
:101FA0005360E28C92B2013A92B2E284E38C9BB22B
:101FB00093B100963B46002280212046FFF74AFF5E
:101FC0000028E3D1002DE6D015F8012B23685A60D4
:101FD000E7E7A8460025E9E700963B4600224021B6
:101FE0002046FFF737FF18B9202384F8413005E079
:101FF000202384F84130032000E0022002B0BDE835
:10200000F0810120FAE7704708B50168CA6822F03C
:102010004002CA60202280F84120FFF7F4FF002030
:1020200008BD08B5806B0023C385FFF7BDF908BD67
:10203000704790F84230DBB2222B69D18368B3F548
:10204000805F4FD0826AB3F5805F04D0002B56D1F9
:102050000369002B53D103685B681370836A0133F3
:102060008362C38D9BB2013B9BB2C385002B51D1D0
:1020700000B583B00268D36823F02003D360026800
:10208000D36823F48073D3600268536923F001039B
:102090005361202380F8423000234363036B012BFC
:1020A00033D100230363026802F10C0353E8003FBD
:1020B00023F010030C3242E800310029F3D1036809
:1020C0001A6812F0100F06D0002201921A680192CD
:1020D0005B680193019B818DFFF7AAFF002003B08D
:1020E0005DF804FB0269002AACD1826A03685B6870
:1020F000C3F308031380836A02338362B1E7036882
:102100005B6803F07F031370A8E7FFF707F9E5E7C3
:10211000022070470020704710B582B00446026864
:102120001368D068516913F00F0F09D113F0200F15
:102130000CD010F0200F09D02046FFF77AFF16E0F0
:1021400011F0010115D110F4907F12D1216B0129FA
:1021500079D013F0800F03D010F0800F40F0218170
:1021600013F0400F03D010F0400F40F01E8102B07A
:1021700010BD13F0010F06D010F4807F03D0626C05
:1021800042F00102626413F0040F04D019B1626CD2
:1021900042F00202626413F0020F04D019B1626CC3
:1021A00042F00402626413F0080F07D010F0200F11
:1021B00000D119B1626C42F008026264626C002ABC
:1021C000D5D013F0200F02D010F0200F29D12368B2
:1021D0005B6903F04003626C12F0080F00D163B337
:1021E0002046FFF750FD23685B6913F0400F20D0B5
:1021F000226802F1140353E8003F23F04003143235
:1022000042E800310029F3D1E36B73B1694A1A65E2
:10221000E06B00F053FD0028A9D0E06B036D9847F8
:10222000A5E72046FFF705FFD1E72046FFF7BCF8FA
:102230009DE72046FFF7B8F899E72046FFF7B4F886
:102240000023636493E713F0100F82D010F0100F97
:102250003FF47FAF00230193136801935368019308
:10226000019B536913F0400F5FD0E26B13685B680A
:102270009BB2002B4AD0A18D994247D9E385D369FF
:10228000B3F5807F37D0226802F10C0353E8003F9A
:1022900023F480730C3242E800310029F3D1226824
:1022A00002F1140353E8003F23F00103143242E823
:1022B00000310029F3D1226802F1140353E8003FF2
:1022C00023F04003143242E800310029F3D12023E7
:1022D00084F8423000232363226802F10C0353E8A0
:1022E000003F23F010030C3242E800310029F3D103
:1022F000E06B00F099FC02236363A18DE38D9BB238
:10230000C91A89B22046FFF793FE30E7A18D9942A2
:102310007FF42DAFD369B3F5807F7FF428AF02231C
:1023200063632046FFF784FE21E7A18DE38D9BB216
:10233000C91A89B2E38D9BB2002B3FF418AF002974
:102340003FF415AF226802F10C0353E8003F23F479
:1023500090730C3242E800300028F3D1226802F179
:10236000140353E8003F23F00103143242E8003025
:102370000028F3D1202384F842300023236322680D
:1023800002F10C0353E8003F23F010030C3242E843
:1023900000300028F3D1022363632046FFF748FE94
:1023A000E5E62046FFF79DFCE1E62046FFF72CFE20
:1023B000DDE600BF2320000881628285C2850023FC
:1023C0004364222380F84230036923B10268D36852
:1023D00043F48073D3600268536943F0010353618F
:1023E0000268D36843F02003D3600020704708B52B
:1023F00090F84230DBB2202B08D149B10AB9012054
:1024000008BD00230363FFF7D7FFF9E70220F7E7D2
:102410000120F5E7002800F0E08170B582B00446A5
:10242000036813F0010F3BD09F4B9B6803F00C0334
:10243000042B2CD09C4B9B6803F00C03082B21D061
:102440006368B3F5803F4FD0B3F5A02F52D0964BC1
:102450001A6822F480321A601A6822F480221A6004
:102460006368002B50D000F005FD05468E4B1B68BD
:1024700013F4003F14D100F0FDFC401B6428F5D993
:102480000320B1E1884B5B6813F4800FD8D0864BF2
:102490001B6813F4003F03D06368002B00F09F819A
:1024A000236813F0020F54D07F4B9B6813F00C0F7E
:1024B0003ED07D4B9B6803F00C03082B33D0E368C0
:1024C000002B68D0794B01221A6000F0D3FC05463E
:1024D000754B1B6813F0020F54D100F0CBFC401B6E
:1024E0000228F5D903207FE16F4A136843F4803353
:1024F0001360B5E76C4B1A6842F480221A601A68C0
:1025000042F480321A60ABE700F0B4FC0546664B3B
:102510001B6813F4003FC3D000F0ACFC401B6428E0
:10252000F5D9032060E1604B5B6813F4800FC6D1DE
:102530005D4B1B6813F0020F03D0E368012B40F0E2
:102540005081594A136823F0F803216943EAC10313
:102550001360236813F0080F42D063696BB3534BC9
:102560000122C3F8802E00F085FC05464E4B5B6FC0
:1025700013F0020F34D100F07DFC401B0228F5D986
:10258000032031E1484A136823F0F803216943EA44
:10259000C1031360DDE7454B00221A6000F06AFCBE
:1025A0000546414B1B6813F0020FD2D000F062FCCD
:1025B000401B0228F5D9032016E13C4B0022C3F84A
:1025C000802E00F057FC0546374B5B6F13F0020F6F
:1025D00006D000F04FFC401B0228F5D9032003E190
:1025E000236813F0040F77D02F4B1B6C13F0805F20
:1025F00033D1002301932C4B1A6C42F080521A64A1
:102600001B6C03F080530193019B0125284B1B6831
:1026100013F4807F23D0A368012B34D0052B38D04E
:10262000214B1A6F22F001021A671A6F22F004027E
:102630001A67A368002B3DD000F01CFC06461A4B1D
:102640001B6F13F0020F46D100F014FC801B41F207
:1026500088339842F3D90320C6E00025D6E7144A10
:10266000136843F48073136000F004FC0646104BBB
:102670001B6813F4807FCED100F0FCFB801B022886
:10268000F5D90320B0E0084A136F43F00103136744
:10269000CFE7054B1A6F42F004021A671A6F42F037
:1026A00001021A67C5E700BF003802400000474238
:1026B0000070004000F0DEFB0646524B1B6F13F02B
:1026C000020F08D000F0D6FB801B41F288339842FD
:1026D000F3D9032088E0EDB9A369002B00F08380D3
:1026E000484A926802F00C02082A51D0022B17D0F7
:1026F000454B00221A6600F0BDFB0446414B1B68A7
:1027000013F0007F42D000F0B5FB001B0228F5D982
:10271000032069E03B4A136C23F080531364DBE72A
:10272000394B00221A6600F0A5FB0546354B1B68A5
:1027300013F0007F06D000F09DFB401B0228F5D966
:10274000032051E0E369226A1343626A43EA821379
:10275000A26A5208013A43EA0243E26A43EA026388
:10276000284A5360284B01221A6600F083FB044676
:10277000244B1B6813F0007F06D100F07BFB001B8D
:102780000228F5D903202FE000202DE000202BE0C7
:10279000012B2BD01B4B5B6803F48001E269914253
:1027A00026D103F03F02216A8A4223D1616A47F6AB
:1027B000C0721A40B2EB811F1ED103F44031A26AED
:1027C0005208013AB1EB024F18D103F07063E26A8C
:1027D000B3EB026F14D1002006E001207047012006
:1027E00002E0012000E0002002B070BD0120FBE704
:1027F0000120F9E70120F7E70120F5E70120F3E7E1
:102800000120F1E7003802400000474208B5264B9E
:102810009B6803F00C03042B41D0082B41D1224BC1
:102820005A6802F03F025B6813F4800F12D01E4B0F
:102830005968C1F388111D480023A1FB0001FEF770
:10284000A3FC194B5B68C3F3014301335B00B0FB8E
:10285000F3F008BD144B5868C0F388104FEA401CD1
:10286000BCEB000C6EEB0E0E4FEA8E1343EA9C633A
:102870004FEA8C11B1EB0C0163EB0E03DB0043EA72
:102880005173C90011EB000C43F1000399020023BE
:102890004FEA8C2041EA9C51FEF776FCD1E70348D1
:1028A000D7E70348D5E700BF0038024040787D01F4
:1028B0000024F400002800F09B8070B50D4604460B
:1028C0004F4B1B6803F007038B4208D2CBB24C4A34
:1028D0001370136803F007038B4240F08B8023686A
:1028E00013F0020F17D013F0040F04D0454A936879
:1028F00043F4E0539360236813F0080F04D0414A77
:10290000936843F4604393603E4A936823F0F00376
:10291000A1680B439360236813F0010F32D0636802
:10292000012B21D09A1E012A25D9364A126812F0AD
:10293000020F61D033498A6822F0030213438B608F
:1029400000F098FA06462F4B9B6803F00C03626870
:10295000B3EB820F16D000F08DFA801B41F2883362
:102960009842F0D9032042E0264A126812F4003F50
:10297000E0D101203BE0234A126812F0007FD9D158
:10298000012034E01E4B1B6803F00703AB4207D95C
:10299000EAB21B4B1A701B6803F00703AB422DD140
:1029A000236813F0040F06D0164A936823F4E0530B
:1029B000E1680B439360236813F0080F07D0114AB6
:1029C000936823F46043216943EAC1039360FFF7EE
:1029D0001DFF0C4B9B68C3F303130B4AD35CD84019
:1029E0000A4B18600A4B186800F0F8F9002070BD17
:1029F000012070470120FAE70120F8E70120F6E7FF
:102A0000003C024000380240883200085800002094
:102A100054000020014B1868704700BF5800002088
:102A200008B5FFF7F7FF044B9B68C3F38223034A03
:102A3000D35CD84008BD00BF003802408032000897
:102A400008B5FFF7E7FF044B9B68C3F34233034A23
:102A5000D35CD84008BD00BF003802408032000877
:102A600000230F2B00F2D78070B582B065E0856837
:102A70004FEA430E032404FA0EF425EA0405CC6859
:102A800004FA0EF42C438460446824EA02044A6881
:102A9000C2F300129A40224342605CE0DC08083432
:102AA00050F8242003F00705AD004FF00F0E0EFA8A
:102AB00005FE22EA0E0E0A69AA4042EA0E0240F81A
:102AC00024205CE0042200E0002202FA0EF22A43F5
:102AD0000234514D45F82420504A94686FEA0C02A4
:102AE00024EA0C054E6816F4801F01D04CEA040558
:102AF0004A4CA560E46802EA04054E6816F4001F1B
:102B000001D04CEA0405454CE560646802EA04051E
:102B10004E6816F4003F01D04CEA04053F4C656056
:102B2000246822404D6815F4803F01D04CEA04022D
:102B30003A4C226001330F2B6BD801229A400C686B
:102B400004EA020C32EA0404F4D14C6804F00304F1
:102B5000013C012C8BD94A6802F00302032A09D0F8
:102B6000C4685D000322AA4024EA02048A68AA40DD
:102B70002243C2604A6802F00302022A8ED004682F
:102B80004FEA430E032202FA0EF224EA02044A68D4
:102B900002F0030202FA0EF2224302604A6812F4C3
:102BA000403FC7D0002201921D4A546C44F4804437
:102BB0005464526C02F480420192019A9C08A51C54
:102BC000154A52F8255003F0030E4FEA8E0E0F22DD
:102BD00002FA0EF225EA0205124A90423FF474AF5F
:102BE00002F5806290420ED002F5806290420CD0D5
:102BF00002F5806290420AD002F5806290423FF472
:102C000061AF072261E701225FE702225DE703224D
:102C10005BE702B070BD704700380140003C0140E6
:102C2000003802400000024070B50446866D00F096
:102C300021F994F83530DBB2022B06D0802363658E
:102C4000002384F83430012070BD054622681368E3
:102C500023F0160313602268536923F08003536145
:102C6000236CE3B12268136823F008031360226821
:102C7000136823F00103136023681B6813F0010F2E
:102C800011D000F0F7F8431B052BF5D9202363651D
:102C9000032084F83500002384F83430D4E7A36C93
:102CA000002BDFD1E3E7E26D3F239340B3600123C4
:102CB00084F83530002084F83400C5E790F83530CA
:102CC000DBB2022B03D0802343650120704705232C
:102CD00080F835300268136823F001031360002088
:102CE00070470000002807DB00F01F0240090123A5
:102CF0009340024A42F82030704700BF00E100E0F4
:102D0000002808DB0901C9B200F1604000F561400C
:102D100080F80013704700F00F000901C9B2014BA1
:102D20001954704714ED00E000B500F00700C0F141
:102D3000070CBCF1040F28BF4FF0040C031D062B39
:102D40000FD9C31E4FF0FF3E0EFA0CF021EA00012E
:102D500099400EFA03FE22EA0E0241EA02005DF8F3
:102D600004FB0023EEE70000074AD36823F4E06386
:102D70001B041B0C000200F4E060034343F0BF633C
:102D800043F40033D360704700ED00E010B5044613
:102D9000054BD868C0F30220FFF7C6FF0146204666
:102DA000FFF7AEFF10BD00BF00ED00E008B5FFF774
:102DB00099FF08BD0138B0F1807F0BD24FF0E023BE
:102DC0005861054AF02182F82310002098610722FB
:102DD0001A6170470120704700ED00E010B504460D
:102DE0000E4B1A784FF47A73B3FBF2F30C4A106867
:102DF000B0FBF3F0FFF7DEFF68B90F2C01D901201B
:102E00000AE0002221464FF0FF30FFF7BFFF054BDD
:102E10001C60002000E0012010BD00BF5000002019
:102E2000580000205400002008B50B4B1A6842F4EB
:102E300000721A601A6842F480621A601A6842F4DA
:102E400080721A600320FFF78FFF0F20FFF7C6FF85
:102E5000FEF7F2FB002008BD003C0240034A116867
:102E6000034B1B780B441360704700BF84020020A3
:102E700050000020014B1868704700BF84020020FA
:102E8000034AD2F8883043F47003C2F888307047A0
:102E900000ED00E010B503460C4A0D490D480068EE
:102EA00040B10C4800680344521A934206D8094ABC
:102EB000136010BD0748084C0460F2E7FDF712FAF2
:102EC0000C2303604FF0FF30F3E700BF0000022047
:102ED000000400008802002090020020DFF834D0B7
:102EE0000D480E490E4A002302E0D458C450043362
:102EF000C4188C42F9D30B4A0B4C002301E0136039
:102F00000432A242FBD3FFF7BBFFFDF7F1F9FEF756
:102F100045FB704700000220000000205C000020FC
:102F2000A83200085C0000208C020020FEE72DE99A
:102F3000F04786468C460846089E15467446194654
:102F4000002B40F0C2808542B2FA82F245D94AB1E4
:102F5000C2F1200300FA02FC2EFA03F3954043EA83
:102F60000C0C94404FEA154EA8B2BCFBFEF8230CA3
:102F70000EFB18CC08FB00F943EA0C43994528D90D
:102F8000EB1808F1FF3704D2994502D9A8F10207DE
:102F90002B44A3EB0903A4B2B3FBFEFC0EFB1C33D2
:102FA0000CFB00F044EA0344A04214D92C190CF1A4
:102FB000FF3304D2A04202D9ACF102032C44241AFC
:102FC00043EA07401EB1D440002334607360BDE87B
:102FD000F0874746DDE76346F1E792BB431B0121DB
:102FE0004FEA154EAFB2B3FBFEFC200C0EFB1C33B8
:102FF0000CFB07F840EA0343984562D9EB180CF143
:10300000FF3004D2984502D9ACF102002B44A3EB67
:103010000803A4B2B3FBFEFC0EFB1C330CFB07F74A
:1030200044EA0344A7424ED92C190CF1FF3304D2D1
:10303000A74202D9ACF102032C44E41B43EA00404E
:10304000C0E7C2F1200320FA03F1954090402EFA28
:1030500003F303434FEA154EAFB2B1FBFEFC0EFB88
:103060001C10190C0CFB07F841EA0041884504FAD2
:1030700002F422D969180CF1FF3004D2884502D934
:10308000ACF102002944A1EB08019BB2B1FBFEFCAC
:103090000EFB1C110CFB07F743EA01439F420ED9BC
:1030A000EB180CF1FF3104D29F4202D9ACF10201BE
:1030B0002B44DB1B41EA004192E76046E3E76146AF
:1030C000F7E76046A3E76346B7E7834206D916B938
:1030D000002108467BE7C6E900E0F9E7B3FA83F789
:1030E0008FB9834201D3724508D8BEEB020460EB6E
:1030F000030301209C461EB9002168E73846FAE721
:10310000C6E9004CF8E7C7F1200CBB4022FA0CF4EA
:103110001C432EFA0CF120FA0CF3B84001434FEA9D
:1031200014490EFA07F5B3FBF9F81FFA84FE09FB00
:1031300018300B0C08FB0EFA43EA00439A4502FADA
:1031400007F240D9E31808F1FF3004D29A4502D9BA
:10315000A8F102002344A3EB0A0389B2B3FBF9F8F8
:1031600009FB183308FB0EFE41EA03418E452CD9BA
:10317000611808F1FF3304D28E4502D9A8F1020389
:10318000214443EA0040A0FB0298A1EB0E01414517
:10319000CE46434602D306D14D4504D2B9EB020ECA
:1031A00068EB04030138002EA6D0B5EB0E0261EBEC
:1031B000030101FA0CFC22FA07F34CEA0303F9407D
:1031C000C6E9003198E74046C5E74346D9E7000025
:1031D000F8B500BFF8BC08BC9E467047F8B500BF04
:0831E000F8BC08BC9E467047D4
:1031E8004F4B3A2025640D0A000000000D0A3E20CE
:1031F800000000000D0A55415254204572726F724A
:103208002120526573657474696E672E2E2E0D0A1F
:103218003E2000000D0A50574D20436F6E74726FA8
:103228006C0D0A00436F6D6D616E643A2064203C3A
:10323800302D313939393E0D0A000000232D302B4D
:1032480020000000686C4C00656667454647000032
:1032580030313233343536373839414243444546C4
:103268000000000030313233343536373839616286
:1032780063646566000000000000000001020304AA
:10328800000000000000000001020304060708090E
:08329800E8D0FF7F01000000F7
:0432A000E111000830
:0432A400BD11000850
:1032A80004000020000000005C000020C400002092
:1032B8002C010020000000000000000000000000B9
:1032C80000000000000000000000000000000000F6
:1032D80000000000000000000000000000000000E6
:1032E80000000000000000000000000000000000D6
:0C32F80001000000100000000024F400A1
:0400000508002EDDE4
:00000001FF
